12008091006 000100000000000000000002000000000000000000028023255682474Romejko Marina Constanza      000000000018000000000000000000000000000018000000000000000000000000000000000000000000000000000000000000000000000000000000000000000000000000000000000000000005PES00010000001 CAI1455       2007102500000000                                                                           
12008091001 000100000000000000000005000000000000000000058030544052027GATA S.A.                     000000000082280000000000000000000000000068000210000000000001428000000000000000000000000000000000000000000000000000000000000000000000000000000000000000000001PES00010000001 CAI1455       2007102500000000                                                                           
12008092001 000100000000000000000006000000000000000000068030544052027GATA S.A.                     000000000014520000000000000000000000000012000210000000000000252000000000000000000000000000000000000000000000000000000000000000000000000000000000000000000001PES00010000001 CAI1455       2007102500000000                                                                           
2200809                             000000000003          30704433618                              000000000114800000000000000000000000000098000    000000000016800000000000000000000000000000000000000000000000000000000000000000000000000000000000000000000                                                                                                                          
