12009081801 000100000000000000000007000000000000000000078030544052027GATA S.A.                     000000000199650000000000000000000000000165000210000000000003465000000000000000000000000000000000000000000000000000000000000000000000000000000000000000000001PES00010000001 CAI1455       2007102500000000                                                                           
12009081901 000100000000000000000011000000000000000000118030544052027GATA S.A.                     000000000013260000000000000000000000000012000105000000000000126000000000000000000000000000000000000000000000000000000000000000000000000000000000000000000001PES00010000001 CAI1455       2007102500000000                                                                           
12009081906 000100000000000000000001000000000000000000018000000000000Romejko Marina Constanza      000000000199650000000000000000000000000165000210000000000003465000000000000000000000000000000000000000000000000000000000000000000000000000000000000000000005PES00010000001 CAI1455       2007102500000000                                                                           
12009081901 000100000000000000000012000000000000000000128030708808489AGENCIA DE INVEST. Y SEGURIDAD000000000049725000000000000000000000000045000105000000000000472500000000000000000000000000000000000000000000000000000000000000000000000000000000000000000001PES00010000001 CAI1455       2007102500000000                                                                           
12009081901 000100000000000000000013000000000000000000138030544052027GATA S.A.                     01PES00010000001 CAI1455       2007102500000000                                                                           
12009081901 000100000000000000000014000000000000000000148030544052027GATA S.A.                     01PES00010000001 CAI1455       2007102500000000                                                                           
12009081901 000100000000000000000015000000000000000000158030544052027GATA S.A.                     000000000082280000000000000000000000000068000210000000000001428000000000000000000000000000000000000000000000000000000000000000000000000000000000000000000001PES00010000001 CAI1455       2007102500000000                                                                           
12009081901 000100000000000000000016000000000000000000168030708808489AGENCIA DE INVEST. Y SEGURIDAD000000000036465000000000000000000000000033000105000000000000346500000000000000000000000000000000000000000000000000000000000000000000000000000000000000000001PES00010000001 CAI1455       2007102500000000                                                                           
12009081901 000100000000000000000017000000000000000000178030708808489AGENCIA DE INVEST. Y SEGURIDAD01PES00010000001 CAI1455       2007102500000000                                                                           
12009081901 000100000000000000000021000000000000000000218030544052027GATA S.A.                     01PES00010000001 CAI1455       2007102500000000                                                                           
12009081903 000100000000000000000001000000000000000000018030544052027GATA S.A.                     000000000009000000000000000000000000000009000000000000000000000000000000000000000000000000000000000000000000000000000000000000000000000000000000000000000001PES00010000001 CAI1455       2007102500000000                                                                           
12009081903 000100000000000000000002000000000000000000028030544052027GATA S.A.                     01PES00010000001 CAI1455       2007102500000000                                                                           
12009081901 000100000000000000000022000000000000000000228030544052027GATA S.A.                     000000000009000000000000000000000000000009000000000000000000000000000000000000000000000000000000000000000000000000000000000000000000000000000000000000000001PES00010000001 CAI1455       2007102500000000                                                                           
12009081801 000100000000000000000009000000000000000000098030544052027GATA S.A.                     000000000009000000000000000000000000000009000000000000000000000000000000000000000000000000000000000000000000000000000000000000000000000000000000000000000001PES00010000001 CAI1455       2007102500000000                                                                           
12009081801 000100000000000000000006000000000000000000068030708808489AGENCIA DE INVEST. Y SEGURIDAD000000000036465000000000000000000000000033000105000000000000346500000000000000000000000000000000000000000000000000000000000000000000000000000000000000000001PES00010000001 CAI1455       2007102500000000                                                                           
12009081801 000100000000000000000008000000000000000000088030544052027GATA S.A.                     01PES00010000001 CAI1455       2007102500000000                                                                           
12009081906 000100000000000000000002000000000000000000028000000000000Romejko Marina Constanza      000000000199650000000000000000000000000165000210000000000003465000000000000000000000000000000000000000000000000000000000000000000000000000000000000000000005PES00010000001 CAI1455       2007102500000000                                                                           
12009081901 000100000000000000000018000000000000000000188030544052027GATA S.A.                     01PES00010000001 CAI1455       2007102500000000                                                                           
12009081801 000100000000000000000005000000000000000000058030708808489AGENCIA DE INVEST. Y SEGURIDAD000000000021780000000000000000000000000018000210000000000000378000000000000000000000000000000000000000000000000000000000000000000000000000000000000000000001PES00010000001 CAI1455       2007102500000000                                                                           
12009081801 000100000000000000000010000000000000000000108030544052027GATA S.A.                     01PES00010000001 CAI1455       2007102500000000                                                                           
12009081901 000100000000000000000019000000000000000000198030708808489AGENCIA DE INVEST. Y SEGURIDAD01PES00010000001 CAI1455       2007102500000000                                                                           
12009081901 000100000000000000000020000000000000000000208030708808489AGENCIA DE INVEST. Y SEGURIDAD01PES00010000001 CAI1455       2007102500000000                                                                           
12009081901 000100000000000000000023000000000000000000238030544052027GATA S.A.                     01PES00010000001 CAI1455       2007102500000000                                                                           
12009081901 000100000000000000000024000000000000000000248030544052027GATA S.A.                     01PES00010000001 CAI1455       2007102500000000                                                                           
12009081901 000100000000000000000025000000000000000000258030544052027GATA S.A.                     01PES00010000001 CAI1455       2007102500000000                                                                           
12009081901 000100000000000000000026000000000000000000268030544052027GATA S.A.                     01PES00010000001 CAI1455       2007102500000000                                                                           
12009081901 000100000000000000000027000000000000000000278030544052027GATA S.A.                     01PES00010000001 CAI1455       2007102500000000                                                                           
12009081901 000100000000000000000028000000000000000000288030544052027GATA S.A.                     01PES00010000001 CAI1455       2007102500000000                                                                           
12009081901 000100000000000000000029000000000000000000298030544052027GATA S.A.                     01PES00010000001 CAI1455       2007102500000000                                                                           
12009081901 000100000000000000000030000000000000000000308030544052027GATA S.A.                     01PES00010000001 CAI1455       2007102500000000                                                                           
12009081901 000100000000000000000031000000000000000000318030544052027GATA S.A.                     01PES00010000001 CAI1455       2007102500000000                                                                           
12009081901 000100000000000000000032000000000000000000328030544052027GATA S.A.                     01PES00010000001 CAI1455       2007102500000000                                                                           
12009081901 000100000000000000000033000000000000000000338030544052027GATA S.A.                     01PES00010000001 CAI1455       2007102500000000                                                                           
12009081901 000100000000000000000034000000000000000000348030544052027GATA S.A.                     01PES00010000001 CAI1455       2007102500000000                                                                           
12009081901 000100000000000000000035000000000000000000358030544052027GATA S.A.                     01PES00010000001 CAI1455       2007102500000000                                                                           
12009081901 000100000000000000000036000000000000000000368030544052027GATA S.A.                     01PES00010000001 CAI1455       2007102500000000                                                                           
12009081901 000100000000000000000037000000000000000000378030544052027GATA S.A.                     01PES00010000001 CAI1455       2007102500000000                                                                           
12009081901 000100000000000000000038000000000000000000388030544052027GATA S.A.                     01PES00010000001 CAI1455       2007102500000000                                                                           
12009081901 000100000000000000000039000000000000000000398030544052027GATA S.A.                     01PES00010000001 CAI1455       2007102500000000                                                                           
12009081901 000100000000000000000040000000000000000000408030544052027GATA S.A.                     01PES00010000001 CAI1455       2007102500000000                                                                           
12009081901 000100000000000000000041000000000000000000418030544052027GATA S.A.                     01PES00010000001 CAI1455       2007102500000000                                                                           
12009081901 000100000000000000000042000000000000000000428030544052027GATA S.A.                     01PES00010000001 CAI1455       2007102500000000                                                                           
12009081901 000200000000000000000001000000000000000000018030544052027GATA S.A.                     01PES00010000001 CAI1455       2007102500000000                                                                           
12009081901 000200000000000000000003000000000000000000038030544052027GATA S.A.                     01PES00010000001 CAI1455       2007102500000000                                                                           
12009081901 000200000000000000000002000000000000000000028030544052027GATA S.A.                     01PES00010000001 CAI1455       2007102500000000                                                                           
12009081901 000200000000000000000004000000000000000000048030544052027GATA S.A.                     01PES00010000001 CAI1455       2007102500000000                                                                           
12009081901 000200000000000000000005000000000000000000058030544052027GATA S.A.                     01PES00010000001 CAI1455       2007102500000000                                                                           
12009081901 000200000000000000000006000000000000000000068030544052027GATA S.A.                     01PES00010000001 CAI1455       2007102500000000                                                                           
12009081901 000200000000000000000007000000000000000000078030544052027GATA S.A.                     01PES00010000001 CAI1455       2007102500000000                                                                           
12009081901 000200000000000000000008000000000000000000088030708808489AGENCIA DE INVEST. Y SEGURIDAD000000000082280000000000000000000000000068000210000000000001428000000000000000000000000000000000000000000000000000000000000000000000000000000000000000000001PES00010000001 CAI1455       2007102500000000                                                                           
12009081901 000200000000000000000009000000000000000000098030544052027GATA S.A.                     000000000022200000000000000000000000000022200000000000000000000000000000000000000000000000000000000000000000000000000000000000000000000000000000000000000001PES00010000001 CAI1455       2007102500000000                                                                           
12009081901 000200000000000000000010000000000000000000108030544052027GATA S.A.                     000000000021780000000000000000000000000018000210000000000000378000000000000000000000000000000000000000000000000000000000000000000000000000000000000000000001PES00010000001 CAI1455       2007102500000000                                                                           
12009081901 000200000000000000000011000000000000000000118030708808489AGENCIA DE INVEST. Y SEGURIDAD000000000022200000000000000000000000000022200000000000000000000000000000000000000000000000000000000000000000000000000000000000000000000000000000000000000001PES00010000001 CAI1455       2007102500000000                                                                           
12009081901 000200000000000000000012000000000000000000128030708808489AGENCIA DE INVEST. Y SEGURIDAD000000000022200000000000000000000000000022200000000000000000000000000000000000000000000000000000000000000000000000000000000000000000000000000000000000000001PES00010000001 CAI1455       2007102500000000                                                                           
12009081901 000200000000000000000013000000000000000000138030708808489AGENCIA DE INVEST. Y SEGURIDAD000000000199650000000000000000000000000165000210000000000003465000000000000000000000000000000000000000000000000000000000000000000000000000000000000000000001PES00010000001 CAI1455       2007102500000000                                                                           
12009081901 000200000000000000000014000000000000000000148030544052027GATA S.A.                     000000000021780000000000000000000000000018000210000000000000378000000000000000000000000000000000000000000000000000000000000000000000000000000000000000000001PES00010000001 CAI1455       2007102500000000                                                                           
12009081901 000200000000000000000015000000000000000000158030544052027GATA S.A.                     01PES00010000001 CAI1455       2007102500000000                                                                           
12009081901 000200000000000000000045000000000000000000458030544052027GATA S.A.                     01PES00010000001 CAI1455       2007102500000000                                                                           
12009081901 000200000000000000000016000000000000000000168030544052027GATA S.A.                     000000000013260000000000000000000000000012000105000000000000126000000000000000000000000000000000000000000000000000000000000000000000000000000000000000000001PES00010000001 CAI1455       2007102500000000                                                                           
12009081901 000200000000000000000017000000000000000000178030544052027GATA S.A.                     01PES00010000001 CAI1455       2007102500000000                                                                           
12009081901 000200000000000000000018000000000000000000188030544052027GATA S.A.                     01PES00010000001 CAI1455       2007102500000000                                                                           
12009081901 000200000000000000000019000000000000000000198030544052027GATA S.A.                     01PES00010000001 CAI1455       2007102500000000                                                                           
12009081901 000200000000000000000020000000000000000000208030544052027GATA S.A.                     01PES00010000001 CAI1455       2007102500000000                                                                           
12009081906 000200000000000000000001000000000000000000018000000000000Romejko Marina Constanza      05PES00010000001 CAI1455       2007102500000000                                                                           
12009081901 000200000000000000000021000000000000000000218030544052027GATA S.A.                     01PES00010000001 CAI1455       2007102500000000                                                                           
12009081901 000200000000000000000022000000000000000000228030544052027GATA S.A.                     01PES00010000001 CAI1455       2007102500000000                                                                           
12009081901 000200000000000000000023000000000000000000238030544052027GATA S.A.                     01PES00010000001 CAI1455       2007102500000000                                                                           
12009081901 000200000000000000000024000000000000000000248030544052027GATA S.A.                     01PES00010000001 CAI1455       2007102500000000                                                                           
12009081901 000200000000000000000025000000000000000000258030544052027GATA S.A.                     01PES00010000001 CAI1455       2007102500000000                                                                           
12009081901 000200000000000000000026000000000000000000268030544052027GATA S.A.                     000000000022200000000000000000000000000022200000000000000000000000000000000000000000000000000000000000000000000000000000000000000000000000000000000000000001PES00010000001 CAI1455       2007102500000000                                                                           
12009081901 000200000000000000000027000000000000000000278030544052027GATA S.A.                     000000000009000000000000000000000000000009000000000000000000000000000000000000000000000000000000000000000000000000000000000000000000000000000000000000000001PES00010000001 CAI1455       2007102500000000                                                                           
12009081901 000200000000000000000028000000000000000000288030544052027GATA S.A.                     01PES00010000001 CAI1455       2007102500000000                                                                           
12009081901 000200000000000000000029000000000000000000298030544052027GATA S.A.                     01PES00010000001 CAI1455       2007102500000000                                                                           
12009081901 000200000000000000000030000000000000000000308030544052027GATA S.A.                     01PES00010000001 CAI1455       2007102500000000                                                                           
12009081901 000200000000000000000031000000000000000000318030544052027GATA S.A.                     000000000021780000000000000000000000000018000210000000000000378000000000000000000000000000000000000000000000000000000000000000000000000000000000000000000001PES00010000001 CAI1455       2007102500000000                                                                           
12009081901 000200000000000000000032000000000000000000328030544052027GATA S.A.                     000000000013260000000000000000000000000012000105000000000000126000000000000000000000000000000000000000000000000000000000000000000000000000000000000000000001PES00010000001 CAI1455       2007102500000000                                                                           
12009081901 000200000000000000000033000000000000000000338030544052027GATA S.A.                     01PES00010000001 CAI1455       2007102500000000                                                                           
12009081901 000200000000000000000034000000000000000000348030544052027GATA S.A.                     01PES00010000001 CAI1455       2007102500000000                                                                           
12009081901 000200000000000000000035000000000000000000358030544052027GATA S.A.                     01PES00010000001 CAI1455       2007102500000000                                                                           
12009081901 000200000000000000000036000000000000000000368030544052027GATA S.A.                     01PES00010000001 CAI1455       2007102500000000                                                                           
12009081901 000200000000000000000037000000000000000000378030544052027GATA S.A.                     01PES00010000001 CAI1455       2007102500000000                                                                           
12009081901 000200000000000000000038000000000000000000388030544052027GATA S.A.                     000000000038720000000000000000000000000032000210000000000000672000000000000000000000000000000000000000000000000000000000000000000000000000000000000000000001PES00010000001 CAI1455       2007102500000000                                                                           
12009081901 000200000000000000000039000000000000000000398030544052027GATA S.A.                     01PES00010000001 CAI1455       2007102500000000                                                                           
12009081901 000200000000000000000040000000000000000000408030708808489AGENCIA DE INVEST. Y SEGURIDAD01PES00010000001 CAI1455       2007102500000000                                                                           
12009081901 000200000000000000000041000000000000000000418030544052027GATA S.A.                     01PES00010000001 CAI1455       2007102500000000                                                                           
12009081901 000200000000000000000042000000000000000000428030708808489AGENCIA DE INVEST. Y SEGURIDAD01PES00010000001 CAI1455       2007102500000000                                                                           
12009081901 000200000000000000000044000000000000000000448030544052027GATA S.A.                     01PES00010000001 CAI1455       2007102500000000                                                                           
12009081901 000200000000000000000046000000000000000000468030708808489AGENCIA DE INVEST. Y SEGURIDAD000000000013260000000000000000000000000012000105000000000000126000000000000000000000000000000000000000000000000000000000000000000000000000000000000000000001PES00010000001 CAI1455       2007102500000000                                                                           
12009081901 000200000000000000000047000000000000000000478030708808489AGENCIA DE INVEST. Y SEGURIDAD01PES00010000001 CAI1455       2007102500000000                                                                           
12009081901 000200000000000000000048000000000000000000488030708808489AGENCIA DE INVEST. Y SEGURIDAD000000000036465000000000000000000000000033000105000000000000346500000000000000000000000000000000000000000000000000000000000000000000000000000000000000000001PES00010000001 CAI1455       2007102500000000                                                                           
12009081901 000200000000000000000061000000000000000000618030708808489AGENCIA DE INVEST. Y SEGURIDAD000000000009000000000000000000000000000009000000000000000000000000000000000000000000000000000000000000000000000000000000000000000000000000000000000000000001PES00010000001 CAI1455       2007102500000000                                                                           
12009081901 000200000000000000000050000000000000000000508030544052027GATA S.A.                     01PES00010000001 CAI1455       2007102500000000                                                                           
12009081901 000200000000000000000051000000000000000000518030544052027GATA S.A.                     000000000082280000000000000000000000000068000210000000000001428000000000000000000000000000000000000000000000000000000000000000000000000000000000000000000001PES00010000001 CAI1455       2007102500000000                                                                           
12009081901 000200000000000000000066000000000000000000668030708808489AGENCIA DE INVEST. Y SEGURIDAD000000000022200000000000000000000000000022200000000000000000000000000000000000000000000000000000000000000000000000000000000000000000000000000000000000000001PES00010000001 CAI1455       2007102500000000                                                                           
12009081901 000200000000000000000052000000000000000000528030544052027GATA S.A.                     000000000013260000000000000000000000000012000105000000000000126000000000000000000000000000000000000000000000000000000000000000000000000000000000000000000001PES00010000001 CAI1455       2007102500000000                                                                           
12009081901 000200000000000000000053000000000000000000538030544052027GATA S.A.                     000000000022200000000000000000000000000022200000000000000000000000000000000000000000000000000000000000000000000000000000000000000000000000000000000000000001PES00010000001 CAI1455       2007102500000000                                                                           
12009081901 000200000000000000000054000000000000000000548030708808489AGENCIA DE INVEST. Y SEGURIDAD000000000038720000000000000000000000000032000210000000000000672000000000000000000000000000000000000000000000000000000000000000000000000000000000000000000001PES00010000001 CAI1455       2007102500000000                                                                           
12009081901 000200000000000000000055000000000000000000558030544052027GATA S.A.                     000000000009000000000000000000000000000009000000000000000000000000000000000000000000000000000000000000000000000000000000000000000000000000000000000000000001PES00010000001 CAI1455       2007102500000000                                                                           
12009081901 000200000000000000000056000000000000000000568030708808489AGENCIA DE INVEST. Y SEGURIDAD000000000013431000000000000000000000000011100210000000000000233100000000000000000000000000000000000000000000000000000000000000000000000000000000000000000001PES00010000001 CAI1455       2007102500000000                                                                           
12009081906 000200000000000000000002000000000000000000028000000000000Romejko Marina Constanza      000000000021780000000000000000000000000018000210000000000000378000000000000000000000000000000000000000000000000000000000000000000000000000000000000000000005PES00010000001 CAI1455       2007102500000000                                                                           
12009081906 000200000000000000000003000000000000000000038000000000000Romejko Marina Constanza      000000000022200000000000000000000000000022200000000000000000000000000000000000000000000000000000000000000000000000000000000000000000000000000000000000000005PES00010000001 CAI1455       2007102500000000                                                                           
12009081901 000200000000000000000057000000000000000000578030544052027GATA S.A.                     000000000022200000000000000000000000000022200000000000000000000000000000000000000000000000000000000000000000000000000000000000000000000000000000000000000001PES00010000001 CAI1455       2007102500000000                                                                           
12009081901 000200000000000000000058000000000000000000588030544052027GATA S.A.                     000000000042350000000000000000000000000035000210000000000000735000000000000000000000000000000000000000000000000000000000000000000000000000000000000000000001PES00010000001 CAI1455       2007102500000000                                                                           
12009081906 000200000000000000000005000000000000000000058000000000000Romejko Marina Constanza      000000000042350000000000000000000000000035000210000000000000735000000000000000000000000000000000000000000000000000000000000000000000000000000000000000000005PES00010000001 CAI1455       2007102500000000                                                                           
12009081901 000200000000000000000059000000000000000000598030708808489AGENCIA DE INVEST. Y SEGURIDAD000000000042350000000000000000000000000035000210000000000000735000000000000000000000000000000000000000000000000000000000000000000000000000000000000000000001PES00010000001 CAI1455       2007102500000000                                                                           
12009081906 000200000000000000000004000000000000000000048000000000000Romejko Marina Constanza      0000000000222000000000000000000000000000222000000000000000000000000000000000000000000000000000000000000000000000000000000000000000000000000000000000000000000000000042350000000000000000000000000035000210000000000000735000000000000000000000000000000000000000000000000000000000000000000000000000000000000000000005PES00010000001 CAI1455       2007102500000000                                                                           
12009081901 000200000000000000000060000000000000000000608030544052027GATA S.A.                     000000000013260000000000000000000000000012000105000000000000126000000000000000000000000000000000000000000000000000000000000000000000000000000000000000000001PES00010000001 CAI1455       2007102500000000                                                                           
12009081901 000200000000000000000061000000000000000000618030544052027GATA S.A.                     000000000038720000000000000000000000000032000210000000000000672000000000000000000000000000000000000000000000000000000000000000000000000000000000000000000001PES00010000001 CAI1455       2007102500000000                                                                           
12009081901 000200000000000000000062000000000000000000628030544052027GATA S.A.                     000000000058080000000000000000000000000048000210000000000001008000000000000000000000000000000000000000000000000000000000000000000000000000000000000000000001PES00010000001 CAI1455       2007102500000000                                                                           
12009081901 000200000000000000000063000000000000000000638030544052027GATA S.A.                     000000000021780000000000000000000000000018000210000000000000378000000000000000000000000000000000000000000000000000000000000000000000000000000000000000000001PES00010000001 CAI1455       2007102500000000                                                                           
12009081901 000200000000000000000064000000000000000000648030544052027GATA S.A.                     000000000058080000000000000000000000000048000210000000000001008000000000000000000000000000000000000000000000000000000000000000000000000000000000000000000001PES00010000001 CAI1455       2007102500000000                                                                           
12009081901 000200000000000000000065000000000000000000658030544052027GATA S.A.                     000000000021780000000000000000000000000018000210000000000000378000000000000000000000000000000000000000000000000000000000000000000000000000000000000000000001PES00010000001 CAI1455       2007102500000000                                                                           
12009081901 000200000000000000000067000000000000000000678030544052027GATA S.A.                     000000000021780000000000000000000000000018000210000000000000378000000000000000000000000000000000000000000000000000000000000000000000000000000000000000000001PES00010000001 CAI1455       2007102500000000                                                                           
12009081901 000200000000000000000068000000000000000000688030544052027GATA S.A.                     000000000013431000000000000000000000000011100210000000000000233100000000000000000000000000000000000000000000000000000000000000000000000000000000000000000001PES00010000001 CAI1455       2007102500000000                                                                           
12009081901 000200000000000000000069000000000000000000698030544052027GATA S.A.                     000000000013431000000000000000000000000011100210000000000000233100000000000000000000000000000000000000000000000000000000000000000000000000000000000000000001PES00010000001 CAI1455       2007102500000000                                                                           
12009081901 000200000000000000000070000000000000000000708030708808489AGENCIA DE INVEST. Y SEGURIDAD000000000058080000000000000000000000000048000210000000000001008000000000000000000000000000000000000000000000000000000000000000000000000000000000000000000001PES00010000001 CAI1455       2007102500000000                                                                           
12009081901 000200000000000000000071000000000000000000718030544052027GATA S.A.                     000000000022200000000000000000000000000022200000000000000000000000000000000000000000000000000000000000000000000000000000000000000000000000000000000000000001PES00010000001 CAI1455       2007102500000000                                                                           
12009082106 000200000000000000000012000000000000000000128000000000000Romejko Marina Constanza      000000000113260000000000000000000000000102498105000000000001076200000000000000000000000000000000000000000000000000000000000000000000000000000000000000000005PES00010000001 CAI1455       2007102500000000                                                                           
12009082006 000200000000000000000007000000000000000000078000000000000Romejko Marina Constanza      000000000013260000000000000000000000000012000105000000000000126000000000000000000000000000000000000000000000000000000000000000000000000000000000000000000005PES00010000001 CAI1455       2007102500000000                                                                           
12009082006 000200000000000000000008000000000000000000088000000000000Romejko Marina Constanza      000000000013260000000000000000000000000012000105000000000000126000000000000000000000000000000000000000000000000000000000000000000000000000000000000000000005PES00010000001 CAI1455       2007102500000000                                                                           
12009082001 000200000000000000000073000000000000000000738030708808489AGENCIA DE INVEST. Y SEGURIDAD000000000013260000000000000000000000000012000105000000000000126000000000000000000000000000000000000000000000000000000000000000000000000000000000000000000001PES00010000001 CAI1455       2007102500000000                                                                           
12009082006 000200000000000000000009000000000000000000098000000000000Romejko Marina Constanza      000000000013260000000000000000000000000012000105000000000000126000000000000000000000000000000000000000000000000000000000000000000000000000000000000000000005PES00010000001 CAI1455       2007102500000000                                                                           
12009082106 000200000000000000000011000000000000000000118000000000000Romejko Marina Constanza      000000000013260000000000000000000000000012000105000000000000126000000000000000000000000000000000000000000000000000000000000000000000000000000000000000000005PES00010000001 CAI1455       2007102500000000                                                                           
12009082006 000200000000000000000010000000000000000000108000000000000Romejko Marina Constanza      000000000013260000000000000000000000000012000105000000000000126000000000000000000000000000000000000000000000000000000000000000000000000000000000000000000005PES00010000001 CAI1455       2007102500000000                                                                           
12009082101 000200000000000000000074000000000000000000748030708808489AGENCIA DE INVEST. Y SEGURIDAD00000000003646500000000000000000000000003300010500000000000034650000000000000000000000000000000000000000000000000000000000000000000000000000000000000000000000000000444000000000000000000000000000444000000000000000000000000000000000000000000000000000000000000000000000000000000000000000000000000000000000000000000000000040293000000000000000000000000033300210000000000000699300000000000000000000000000000000000000000000000000000000000000000000000000000000000000000001PES00010000001 CAI1455       2007102500000000                                                                           
12009082106 000200000000000000000014000000000000000000148000000000000Romejko Marina Constanza      00000000003646500000000000000000000000003300010500000000000034650000000000000000000000000000000000000000000000000000000000000000000000000000000000000000000000000000444000000000000000000000000000444000000000000000000000000000000000000000000000000000000000000000000000000000000000000000000000000000000000000000000000000040293000000000000000000000000033300210000000000000699300000000000000000000000000000000000000000000000000000000000000000000000000000000000000000005PES00010000001 CAI1455       2007102500000000                                                                           
12009082108 000200000000000000000001000000000000000000018000000000000Romejko Marina Constanza      000000000100000000000000000000000000000090498105000000000000950200000000000000000000000000000000000000000000000000000000000000000000000000000000000000000005PES00010000001 CAI1455       2007102500000000                                                                           
12009082103 000200000000000000000001000000000000000000018030708808489AGENCIA DE INVEST. Y SEGURIDAD000000000110500000000000000000000000000100000105000000000001050000000000000000000000000000000000000000000000000000000000000000000000000000000000000000000001PES00010000001 CAI1455       2007102500000000                                                                           
12009082108 000200000000000000000002000000000000000000028000000000000Romejko Marina Constanza      000000000036465000000000000000000000000033000105000000000000346500000000000000000000000000000000000000000000000000000000000000000000000000000000000000000005PES00010000001 CAI1455       2007102500000000                                                                           
12009082108 000200000000000000000003000000000000000000038000000000000Romejko Marina Constanza      000000000100000000000000000000000000000090498105000000000000950200000000000000000000000000000000000000000000000000000000000000000000000000000000000000000005PES00010000001 CAI1455       2007102500000000                                                                           
12009082108 000200000000000000000005000000000000000000058000000000000Romejko Marina Constanza      000000000009000000000000000000000000000009000000000000000000000000000000000000000000000000000000000000000000000000000000000000000000000000000000000000000005PES00010000001 CAI1455       2007102500000000                                                                           
12009082108 000200000000000000000005000000000000000000058000000000000Romejko Marina Constanza      000000000036465000000000000000000000000033000105000000000000346500000000000000000000000000000000000000000000000000000000000000000000000000000000000000000005PES00010000001 CAI1455       2007102500000000                                                                           
12009082108 000200000000000000000005000000000000000000058000000000000Romejko Marina Constanza      000000000042350000000000000000000000000035000210000000000000735000000000000000000000000000000000000000000000000000000000000000000000000000000000000000000005PES00010000001 CAI1455       2007102500000000                                                                           
12009082108 000200000000000000000005000000000000000000058000000000000Romejko Marina Constanza      000000000009000000000000000000000000000009000000000000000000000000000000000000000000000000000000000000000000000000000000000000000000000000000000000000000005PES00010000001 CAI1455       2007102500000000                                                                           
12009082103 000200000000000000000002000000000000000000028030708808489AGENCIA DE INVEST. Y SEGURIDAD000000000036465000000000000000000000000033000105000000000000346500000000000000000000000000000000000000000000000000000000000000000000000000000000000000000001PES00010000001 CAI1455       2007102500000000                                                                           
12009082108 000200000000000000000006000000000000000000068000000000000Romejko Marina Constanza      000000000036465000000000000000000000000033000105000000000000346500000000000000000000000000000000000000000000000000000000000000000000000000000000000000000005PES00010000001 CAI1455       2007102500000000                                                                           
12009082108 000200000000000000000007000000000000000000078000000000000Romejko Marina Constanza      000000000199650000000000000000000000000165000210000000000003465000000000000000000000000000000000000000000000000000000000000000000000000000000000000000000005PES00010000001 CAI1455       2007102500000000                                                                           
12009082108 000200000000000000000008000000000000000000088000000000000Romejko Marina Constanza      000000000013260000000000000000000000000012000105000000000000126000000000000000000000000000000000000000000000000000000000000000000000000000000000000000000005PES00010000001 CAI1455       2007102500000000                                                                           
12009082108 000200000000000000000009000000000000000000098000000000000Romejko Marina Constanza      000000000290400000000000000000000000000240000210000000000005040000000000000000000000000000000000000000000000000000000000000000000000000000000000000000000005PES00010000001 CAI1455       2007102500000000                                                                           
12009082108 000200000000000000000010000000000000000000108000000000000Romejko Marina Constanza      000000000022200000000000000000000000000022200000000000000000000000000000000000000000000000000000000000000000000000000000000000000000000000000000000000000005PES00010000001 CAI1455       2007102500000000                                                                           
12009082108 000200000000000000000011000000000000000000118000000000000Romejko Marina Constanza      000000000013260000000000000000000000000012000105000000000000126000000000000000000000000000000000000000000000000000000000000000000000000000000000000000000005PES00010000001 CAI1455       2007102500000000                                                                           
12009082108 000200000000000000000012000000000000000000128000000000000Romejko Marina Constanza      000000000036465000000000000000000000000033000105000000000000346500000000000000000000000000000000000000000000000000000000000000000000000000000000000000000005PES00010000001 CAI1455       2007102500000000                                                                           
12009082106 000200000000000000000016000000000000000000168000000000000Romejko Marina Constanza      000000000013431000000000000000000000000011100210000000000000233100000000000000000000000000000000000000000000000000000000000000000000000000000000000000000005PES00010000001 CAI1455       2007102500000000                                                                           
12009082106 000200000000000000000017000000000000000000178000000000000Romejko Marina Constanza      000000000013260000000000000000000000000012000105000000000000126000000000000000000000000000000000000000000000000000000000000000000000000000000000000000000005PES00010000001 CAI1455       2007102500000000                                                                           
12009082101 000200000000000000000075000000000000000000758030708808489AGENCIA DE INVEST. Y SEGURIDAD000000000013260000000000000000000000000012000105000000000000126000000000000000000000000000000000000000000000000000000000000000000000000000000000000000000001PES00010000001 CAI1455       2007102500000000                                                                           
2200908                             000000000086          30709864013                              000000003801486000000000000000000000003294494    000000000506992000000000000000000000000000000000000000000000000000000000000000000000000000000000000000000                                                                                                                          
