12008100501 00010000000000000000899320081005000           8030544052027GATA S.A.                     000000000000000000000000000000000000000001000210000000000000021000000000000000000000000000000000000000000000000000000000000000000000000000000000000000000001PES00010000003 0000000343243320081006                                                                           
12008100501 00010000000000000000899320081005000           8030544052027GATA S.A.                     000000000000000000000000000000000000000010000105000000000000105000000000000000000000000000000000000000000000000000000000000000000000000000000000000000000001PES00010000003 0000000343243320081006                                                                           
12008100501 00010000000000000000899320081005000           8030544052027GATA S.A.                     000000000062260000000000000000000000000050000000000000000000000000000000000000000000000000000000000000000000000000000000000000000000000000000000000000000001PES00010000003 0000000343243320081006                                                                           
12008100701 00010000000000000000000120081007000           8023255682474Veronica                      000000000010000000000000000000000000000010000000000000000000000000000000000000000000000000000000000000000000000000000000000000000000000000000000000000000006PES00010000001 0000001234567820081007                                                                           
2200810          000000000004                               30704433618                              000000000072260000000000000000000000000071000    000000000001260000000000000000000000000000000000000000000000000000000000000000000000000000000000000000000                                                                                                                  
