12007110101 000100000007000000078020288636770Rafael Jose Luis Donadio      00000000001089000000000000000000000000000900000000000000210000000000000189000000000000000000000000000000000000000000000000000000000000000000000000000000000000000000001PES            CAI1455       20071025        000000000000000000000000000000000000000000000000000000000000
12007110101 000100000007000000078020288636770Rafael Jose Luis Donadio      00000000004235000000000000000000000000003500000000000000210000000000000735000000000000000000000000000000000000000000000000000000000000000000000000000000000000000000001PES            CAI1455       20071025        000000000000000000000000000000000000000000000000000000000000
12007110101 000100000008000000088030544052027GATA S.A.                     00000000019965000000000000000000000000016500000000000000210000000000003465000000000000000000000000000000000000000000000000000000000000000000000000000000000000000000001PES            CAI1455       20071025        000000000000000000000000000000000000000000000000000000000000
12007110101 000100000009000000098020288636770Rafael Jose Luis Donadio      00000000003872000000000000000000000000003200000000000000210000000000000672000000000000000000000000000000000000000000000000000000000000000000000000000000000000000000001PES            CAI1455       20071025        000000000000000000000000000000000000000000000000000000000000
12007110101 000100000009000000098030544052027GATA S.A.                     00000000008228000000000000000000000000006800000000000000210000000000001428000000000000000000000000000000000000000000000000000000000000000000000000000000000000000000001PES            CAI1455       20071025        000000000000000000000000000000000000000000000000000000000000
12007110101 000100000010000000108030544052027GATA S.A.                     00000019965000000000000000000000000016500000000000000000210000000003465000000000000000000000000000000000000000000000000000000000000000000000000000000000000000000000001PES            CAI1455       20071025        000000000000000000000000000000000000000000000000000000000000
12007110103 000100000002000000028030544052027GATA S.A.                     00000000004356000000000000000000000000003600000000000000210000000000000756000000000000000000000000000000000000000000000000000000000000000000000000000000000000000000001PES            CAI1455       20071025        000000000000000000000000000000000000000000000000000000000000
12007110103 000100000003000000038030544052027GATA S.A.                     00000000003872000000000000000000000000003200000000000000210000000000000672000000000000000000000000000000000000000000000000000000000000000000000000000000000000000000001PES            CAI1455       20071025        000000000000000000000000000000000000000000000000000000000000
12007111201 000100000011000000118020288636770Rafael Jose Luis Donadio      00000000046585000000000000000000000000038500000000000000210000000000008085000000000000000000000000000000000000000000000000000000000000000000000000000000000000000000001PES            CAI1455       20071025        000000000000000000000000000000000000000000000000000000000000
12007111301 000100000012000000128030544052027GATA S.A.                     00000000019360000000000000000000000000016000000000000000210000000000003360000000000000000000000000000000000000000000000000000000000000000000000000000000000000000000001PES            CAI1455       20071025        000000000000000000000000000000000000000000000000000000000000
12007111202 000100000001000000018020288636770Rafael Jose Luis Donadio      00000000008470000000000000000000000000007000000000000000210000000000001470000000000000000000000000000000000000000000000000000000000000000000000000000000000000000000001PES            CAI1455       20071025        000000000000000000000000000000000000000000000000000000000000
2200711             00000011                 30708570288                      000000200850320000000000000000000000165992000               000000034858320000000000000000000000000000000000000000000000000000000000000000000000000000000000000000000                                                              
